:020000040800F2
:10000000402200209D01000833200008D31C000876
:1000100031200008A9020008752500080000000032
:10002000000000000000000000000000AF01000818
:10003000BD03000800000000B301000835200008DF
:10004000B7010008B7010008B7010008B7010008B0
:10005000B7010008B7010008B7010008B7010008A0
:10006000B7010008B7010008B7010008B701000890
:100070000D030008B7010008B7010008B701000828
:10008000B7010008B7010008B7010008B701000870
:10009000AD020008B7010008B7010008B701000869
:1000A000B7010008B7010008B7010008B701000850
:1000B000B7010008B7010008B7010008B701000840
:1000C000B7010008B7010008B7010008B701000830
:1000D000B7010008B7010008B7010008B701000820
:1000E000B7010008B7010008B7010008B701000810
:1000F000B7010008B7010008B7010008B701000800
:10010000B7010008B7010008B7010008B7010008EF
:10011000B7010008B7010008B7010008B7010008DF
:10012000B7010008B7010008B7010008B7010008CF
:10013000B7010008B7010008B7010008B7010008BF
:10014000B9020008B7010008B7010008B7010008AC
:10015000B7010008B7010008B7010008B70100089F
:10016000B7010008B7010008B7010008B70100088F
:10017000B7010008B7010008B7010008000000003F
:10018000B7010008B7010008DFF80CD000F07AF8DA
:10019000004800470D2600084022002006488047FE
:1001A00006480047FEE7FEE7FEE7FEE7FEE7FEE75C
:1001B000FEE7FEE7FEE7FEE7BD2000088901000834
:1001C0002DE9F05F0546002092469B46884606468C
:1001D000814640241BE0284641464746224600F01F
:1001E00041F853465A46C01A914110D31146184659
:1001F000224600F028F82D1A67EB01084F462246E8
:100200000120002100F01FF817EB00094E41201ECD
:10021000A4F10104DFDC484631462A464346BDE8E6
:10022000F09FD2B201E000F8012B491EFBD27047CB
:100230000022F6E710B513460A4604461946FFF7B2
:10024000F0FF204610BD202A04DB203A00FA02F11C
:10025000002070479140C2F1200320FA03F31943B4
:1002600090407047202A04DB203A21FA02F0002156
:10027000704721FA02F3D040C2F1200291400843B6
:1002800019467047064C074D06E0E06840F0010350
:1002900094E8070098471034AC42F6D3FFF778FF94
:1002A00090260008B0260008FEE70000014800F094
:1002B000F8B9000054000020014800F0F2B9000035
:1002C0007C00002038B50E4C4FF4007525600025E9
:1002D000A560E560082525610A4C050A2570607057
:1002E000080AA070E170100A20716271180AA071EA
:1002F000E3716B4622460249034800F073F838BDAB
:10030000240200202100002054000020014800F0B9
:1003100039BC00006401002001681823CAB2103AF9
:10032000B2FBF3F2054B6FF30901032A9B5CC36533
:1003300000D9091D81650846704700007026000835
:1003400010B5014600208B698A6A4FF0C07453B122
:10035000B3F5005F15D072B1012A0CD0022A0AD081
:10036000032A09D104E01AB1012A06D0022A03D1D6
:10037000C96AC90100D5012010BDC96AA142FAD0DD
:1003800010BD002AF7D0012AF2D0022AF3D0032AA6
:10039000F3D010BD30B50468256825F480252560AC
:1003A000046863608368402B036803D09960006829
:1003B000C26030BD9A600068C16030BD7047704750
:1003C00090F82020012A07D0022A05D0416A41F482
:1003D0008021416201207047006842690A434261FE
:1003E00000207047F0B590F820500468A468012DF3
:1003F00005D0022D03D0416A41F4802153E014F06E
:10040000406F01D1E5004BD5C4F30164022C03D940
:10041000416A41F4000146E00125A5401D608D6858
:100420004FF4C0739DB1CE6835434E6845EAC605AA
:10043000066803EB0417F5514FF4C275076805EB26
:1004400004150E697E51097D012905D009E00E8849
:10045000CD6845EA4655EBE701684E5946F480768B
:100460004E511179D2F805504FF4C67641EA052570
:10047000016806EB04168D511178D2F801204FF473
:10048000C47541EA0221026805EB04155151006868
:1004900003EB0411425842F0010242500020F0BD2B
:1004A000416A41F4001141620120F0BD10B590F89D
:1004B0002020012A07D0022A05D0416A41F4802178
:1004C0004162012010BD3B48D0F8002242F00102F9
:1004D000C0F80022D0F8002222F47C52C0F800229A
:1004E000D0F800224B6A42EA0322C0F800220A7DBB
:1004F00002F01F0301229A40D0F81C329343C0F847
:100500001C32CB69B3B9D0F80C329343C0F80C322B
:100510008C894B6864F31F434C6900EBC404C4F836
:1005200040320C890B6864F31F434C6900EBC40430
:10053000C4F84432CB69012B16D1D0F80C321343E6
:10054000C0F80C320C884B6864F31F434C6900EB15
:10055000C404C4F840320C89CB6864F31F434C696F
:1005600000EBC404C4F844328B69002BD0F8043289
:100570000ED01343C0F804320B69002BD0F81432AC
:1005800008D01343C0F81432096A012904D008E0E6
:100590009343EFE79343F5E7D0F81C121143C0F8FB
:1005A0001C12D0F8001221F00101C0F80012002046
:1005B00010BD000000640040704730B590F8204046
:1005C000012C05D0022C03D0416A41F480215DE06A
:1005D0000468002955D02469A40754D04FF4D87476
:1005E000056804EB01142D5915F0040595600568A4
:1005F0002D594ED0ED08556005682C5904F00204C1
:10060000D4604FF4DA74056804EB01142D5905F039
:100610000F05156105682D59C5F307259561056816
:100620002C59240C54614FF4DC72046802EB011263
:10063000A4581C700468A458240A5C700468A45868
:10064000240C9C700468A258120EDA704FF4DE720B
:10065000046802EB0112A4581C710468A458240A0F
:100660005C710468A458240C9C710468A258120E92
:10067000DA71006881B1016941F020010161002057
:1006800030BDE468A8E7416A41F4001141620120ED
:1006900030BD6D0D1560AFE7C16841F02001C1604C
:1006A000EDE72DE9F05F0546006800244669D0F8C3
:1006B00004908768D0F80CB0D0F810A0D0F818805B
:1006C000F10748D0F90714D001218160B80703D59C
:1006D000284600F050FA0CE0780702D54FF4006489
:1006E00007E0380702D54FF4805402E0284600F0B6
:1006F00041FAF80516D529684FF480708860B8056E
:1007000003D5284600F039FA0CE0780502D544F408
:10071000005407E0380502D544F4804402E028463E
:1007200000F02AFAF80316D529684FF48030886063
:10073000B80303D5284600F022FA0CE0780302D56E
:1007400044F4004407E0380302D544F4803402E066
:10075000284600F013FA300707D55FEACB6004D5CE
:100760002968102044F40074C86070074FF008072F
:1007700007D55FEA0B7004D52868C760284600F0EB
:1007800099F9B00706D52868C068800702D02846C6
:1007900000F092F9700607D55FEACA6004D52968AF
:1007A000102044F480640861B00607D55FEA0A703F
:1007B00004D528680761284600F0ACF9F00606D594
:1007C00028680069800702D0284600F0A4F9B00329
:1007D00008D55FEAC96005D5296810204860284619
:1007E00000F09AF9F00307D55FEA097004D528688C
:1007F0004760284600F0C4F9300446D55FEA4970E6
:1008000040D5F00504D55FEAC87001D044F001047A
:10081000B00504D55FEA887001D544F00204700584
:1008200004D55FEA487001D544F00404300529D5A9
:1008300018F0700F26D008F07000402815D006DCA4
:10084000102809D020280AD0302816D10AE05028D4
:100850000ED0602811D10EE044F008040DE044F001
:1008600010040AE044F0200407E044F0400404E0EF
:1008700044F0800401E044F480742868816921F028
:1008800070018161296804204860002C05D0686AE5
:10089000204368622846FFF78FFEBDE8F09F70B5E1
:1008A000040003D094F8200010B104E0012070BDD2
:1008B000204600F081F82068016821F00201016003
:1008C00000F0C0FB0546052604E000F0BBFB401B22
:1008D0000A2811D8206840688007F6D4206801688B
:1008E00041F00101016000F0ADFB05460BE000F0B6
:1008F000A9FB401B0A2806D9606A40F400306062F8
:1009000084F82060D2E720684068C007EFD0207EDE
:100910000128206801683DD021F080010160607EDF
:1009200001282068016838D021F040010160A07ED4
:1009300001282068016833D021F020010160E07EA9
:100940000128206801682ED041F010010160207F4D
:1009500001282068016829D021F008010160607F2A
:1009600001282068016824D021F004010160D4E945
:1009700002010843D4E90412114308436168491E87
:1009800008432168C86100206062012084F82000CB
:10099000002070BD41F08001C0E741F04001C5E793
:1009A00041F02001CAE721F01001CFE741F0080132
:1009B000D4E741F00401D9E7F0B587B0044614212B
:1009C0006846FFF735FC364B3648DFF8D0E019684B
:1009D000D4F800C0334A032502260927103000242A
:1009E000491CF44522D11960012907D1016841F061
:1009F00000710160006800F000700590106840F020
:100A0000080010601068CDE9005600F00800CDE93C
:100A1000047069462448CDE9024500F037FA002207
:100A20001146142000F07CFB142032E0DFF87CE05B
:100A3000F44530D1D0F800C04CF0806CC0F800C054
:100A4000D0F800C001290CF0806CCDF814C01960FA
:100A500007D1016841F000710160006800F000708A
:100A60000590106840F002001060106802AB00F0C2
:100A7000020005906020CDE9000683E8B0006946D9
:100A80000B4800F003FA00221146402000F048FB1A
:100A9000402000F037FB07B0F0BD000000640040CC
:100AA0000400002030380240000C02400068004082
:100AB000000402407047000000B58BB001AB03AAF0
:100AC0000021FFF77AFD0398A0F2012006281AD82A
:100AD0000E49C0B200EB800208700D4901EB4200E4
:100AE00031F812300381BDF804305BBA21F81230BE
:100AF000BDF8061049BA4180BDF8081049BA818096
:100B00009DF80A1081710BB000BD00001800002094
:100B1000C4010020704770477047000070B504465C
:100B200090F82000012804D0606A40F40020606240
:100B300018E0022084F820002068016821F00101FB
:100B4000016000F07FFA05460EE000BF00F07AFA7F
:100B5000401B0A2808D9606A40F400306062052012
:100B600084F82000012070BD20684068C007EDD1E6
:100B7000606270BD7047704770477047704770473C
:100B8000704700002DE9F84304464FF00009CDF806
:100B9000009063484FF41651A56D0068B0FBF1F763
:100BA0002E6894F85C10082000FA01F131420FD051
:100BB00021680A6852070BD50A6822F004020A600D
:100BC00094F85C108840A860606D40F0010060659A
:100BD00094F85C104FF0010808FA01F0304208D098
:100BE00021684969090604D5A860606D40F00200DB
:100BF000606594F85C1004208840304208D0216879
:100C00000968890704D5A860606D40F0040060653C
:100C100094F85C1010208840304218D02168096890
:100C2000090714D5A86020680168490304D5006845
:100C3000000308D5A16C07E00168C90503D4016869
:100C400021F008010160216C09B12046884794F821
:100C50005C1020208840304231D021680968C906E4
:100C60002DD5A86094F8350005282068016806D0C5
:100C7000490347D5006800031DD4616C1CE021F0D6
:100C8000160101602068416921F080014161206CFA
:100C900008B9A06C20B12068016821F0080101604A
:100CA00094F85C103F208840A86084F8349084F861
:100CB0003580216D1FE0E16B09B120468847606DEA
:100CC00000282BD0606DC00714D0052084F83500B3
:100CD0002068016821F0010101600098401C00902B
:100CE000B84203D820680068C007F6D184F8349071
:100CF00084F83580E16C002910D001B02046BDE8B1
:100D0000F04308470168C905D5D4016821F01001F6
:100D1000016084F8349084F83580CCE7BDE8F8832E
:100D2000140000202DE9F041044600F08BF906463E
:100D30005CB1002584F83450022084F83500206826
:100D4000016821F0010101600DE00120BDE8F081A2
:100D500000F078F9801B052805D920206065032064
:100D600084F83500F2E720680068C007F0D12268F7
:100D7000116820480140D4E901031843D4E903363F
:100D80003343184363691843A3691843E36918435D
:100D9000236A18430843616A042903D1D4E90B1379
:100DA00019430843106020684069666A20F0070113
:100DB00030460E43012704280CD1A06A0643E06A9E
:100DC00040B12046FFF7BCFA20B14020606584F8AE
:100DD0003570BAE7206846612046FFF79DFA94F81F
:100DE0005C203F2191408160656584F8357000206A
:100DF000ACE700003F8010F02DE9F0410446866D1D
:100E000090F83400002501280DD0012084F834002A
:100E100094F835700020012F07D084F834000225A3
:100E20002846BDE8F0810220FBE7022784F83570F0
:100E300060652046FFF7AEFA94F85C103F208840CA
:100E4000B0602068016841F016010160206C20B19B
:100E50002068016841F0080101602068016841F0E4
:100E600001010160DCE7000070B5044600F0EAF81B
:100E70000546601C02D004480078044400F0E2F803
:100E8000401BA042FAD370BD080000202DE9F84FA6
:100E900000224FF0010803254FF00F0E0B6808FAEF
:100EA00002F42340A3426ED14E68012E05D0022EDB
:100EB00003D0112E01D0122E12D186684FEA420CB7
:100EC00005FA0CF7BE43CF6807FA0CF73743876083
:100ED0004668A6430C79C4F300149440344344603C
:100EE000C668570005FA07FC8C6826EA0C06BC4069
:100EF0003443C4604C68022C01D0122C13D1D408A6
:100F000000EB8404A346D4F8209054074FEAD46A37
:100F10000EFA0AF629EA06090E6906FA0AF646EA00
:100F20000906CBF8206006680C7926EA0C0604F066
:100F30000304BC40344304604C68E40065D5364C7F
:100F4000266846F480462660246822F0030604F4EE
:100F500080440094314C3444A446D4F808489607A1
:100F6000370F0EFA07F6B4432D4EB04201D10026DA
:100F700024E02C4EB04201D101261FE02A4EB0429F
:100F800002D102261AE040E0284EB04201D10326E9
:100F900014E0274EB04201D104260FE0254EB042A6
:100FA00001D105260AE0244EB04201D1062605E013
:100FB000224EB04201D1072600E00826BE4026435B
:100FC000CCF808681E4E34684F689C43FF0300D578
:100FD0001C4334601A4C241D26684F689E43BF038F
:100FE00000D51E432660164E083634684F689C4371
:100FF000FF0200D51C433460114E0C3634684F6834
:101000009C43BF0200D51C433460521C102AFFF4DD
:1010100045AFBDE8F88F0000443802400030014081
:10102000000002400004024000080240000C0240A0
:10103000001002400014024000180240001C024050
:10104000003C014001488068704700000800002013
:1010500002488168027811448160704708000020CE
:101060000B4810B5016841F400710160016841F45A
:1010700080610160016841F480710160032000F02B
:101080006FF8002000F006F800F024F8002010BDF2
:10109000003C024070B50D4D04464FF47A7128783B
:1010A000B1FBF0F00A490968B1FBF0F000F004FB75
:1010B00048B9102C07D200222146501E00F030F80B
:1010C00000206C6070BD012070BD00000800002091
:1010D000140000200A4808B5016841F4804101600D
:1010E000006800F4804000900548001F016841F04E
:1010F00080510160006800F08050009008BD000041
:1011000044380240002809DB00F01F020121914011
:101110004009800000F1E020C0F800117047000095
:10112000F0B40E4B1B680C46C3F30223C3F1070552
:10113000042D00D90425191D072901D2002300E040
:10114000DB1E012606FA05F1491E214099409E400A
:10115000761E16403143F0BC01F00DBA0CED00E0F4
:10116000064900F0070208684FF6FF03184040EAFE
:101170000220034A10430860704700000CED00E0B5
:101180000000FA052DE9F0470E46050065D0DFF8AE
:101190001481D8F80000F7B200F00F00B04207D277
:1011A00088F80070D8F8000000F00F00B04254D169
:1011B00028683D4C810712D5400703D5206840F4CC
:1011C000E05020602878000703D5206840F4604094
:1011D00020602068A96820F0F0000843206028788B
:1011E000C0072DD0304968680839012812D002287C
:1011F00013D0032811D00968890700292DDA216846
:1012000021F0030101432160FFF71CFF814641F2F9
:10121000883A0EE009688903EFE709688901ECE77D
:10122000FFF710FFA0EB0901514502D90320BDE8EB
:10123000F0872068696800F00C00B0EB810FEFD1F7
:10124000D8F80010404601F00F01B14207D90770ED
:10125000006800F00F00B04201D00120E7E72878D5
:10126000400705D52068E96820F4E0500843206075
:101270002878000706D52068296920F4604040EAF4
:10128000C100206000F038F82168084AC1F303115A
:10129000515CC8400649086006480068FFF7FAFE3E
:1012A0000020C4E7003C02400838024078260008CD
:1012B000140000200C00002004480549006809685B
:1012C000044AC1F38221515CC840704714000020D9
:1012D0000838024088260008044805490068096863
:1012E000044AC1F34231515CC840704714000020E9
:1012F0000838024088260008154810B5006810F02C
:101300000C02144813D01449042A0FD0082A0ED115
:101310000F4C241F2268236802F03F025B0207D5AE
:101320002068C0F38810A0FB010106E0084610BD4C
:101330002168C1F38811A1FB00010023FEF740FFE3
:101340002168C1F30141491C4900B0FBF1F010BD17
:10135000083802400024F400001BB7002DE9F84FC4
:1013600004006ED02078DFF83C93C007A9F1040593
:101370004AD009F104000168C1F38101012908D0B4
:101380000068C0F3810002280AD1D9F800004002A9
:1013900006D52868800337D560680028E1D033E09F
:1013A0006068B0F5803F10D0B0F5A02F286810D04D
:1013B00020F480302860286820F48020286060684D
:1013C000A8B1FFF73FFE06460DE0286840F48030E4
:1013D000F4E740F480202860F7E700BFFFF732FE13
:1013E000801B642873D828688003F7D50CE0FFF7CA
:1013F00029FE064605E000BFFFF724FE801B642897
:10140000F0D828688003F7D42078DFF89C82800722
:101410004FF0000A3ED5A348001D016811F00C0FE3
:1014200008D00068C0F3810002280BD1D9F8000071
:10143000400207D42868800716D5E068012800D14B
:1014400012E02BE1E068B8B10120C8F80000FFF716
:10145000F9FD064605E000BFFFF7F4FD801B0228FA
:10146000C0D828688007F7D52868216920F0F800DF
:1014700040EAC10028600DE0C8F800A0FFF7E2FDD7
:10148000064604E0FFF7DEFD801B02281FD828680F
:101490008007F7D42078000722D5824E83486169FF
:1014A000703671B101210160FFF7CCFD074604E001
:1014B000FFF7C8FDC01B022809D830688007F7D5A0
:1014C0000EE0C0F800A0FFF7BDFD074605E082E092
:1014D000FFF7B8FDC01B02287DD830688007F7D41D
:1014E0002078400768D5DFF8BCB100270BF13C0B32
:1014F000DBF80000C0000BD4DBF8001041F0805195
:10150000CBF80010DBF80000012700F080500090BD
:10151000674E3068C00510D4306840F48070306089
:10152000FFF790FD009005E0FFF78CFD0099401A51
:10153000022850D83068C005F6D55A4EA0686C36DF
:1015400001280FD00528306810D020F0010030604D
:10155000306820F004003060A068B8B1FFF772FD79
:1015600000900FE0306840F00100F4E740F0040024
:101570003060F7E7FFF766FD0099411A41F28830C5
:10158000814266D830688007F4D50EE0FFF75AFD37
:10159000009007E0FFF756FD0099411A41F28830AC
:1015A000814256D830688007F4D42FB1DBF80010A0
:1015B00021F08051CBF80010A069C8B33949091D4A
:1015C0000968C1F3810102294AD00228504607D098
:1015D000C8F8600000E03CE0FFF734FD04463BE063
:1015E0004746C8F86000FFF72DFD064605E000BF3E
:1015F000FFF728FD801B02282BD828688001F7D42C
:10160000D4E907010843A16A2A4A490802EB0141CB
:10161000626A41EA8211084394F82C1040EA0161A1
:10162000C9F8001001203866FFF70CFD044606E0FB
:1016300036E000BFFFF706FD001B022809D8286826
:101640008001F7D52CE000BFFFF7FCFC001B02284F
:1016500002D90320BDE8F88F28688001F4D41FE088
:101660000128F7D0D9F80000E26900F48001914226
:1016700014D1226A00F03F0191420FD147F6C071A8
:10168000626A0140914209D1A26A00F4403191425C
:1016900004D1E16A00F07060884201D00120D9E7EE
:1016A0000020D7E70438024000004742800E47423E
:1016B000007000400000FFFF10B5401EB0F1807FB9
:1016C00001D3012010BD4FF0E02460610F216017AD
:1016D00000F051FF0020A06107202061002010BD14
:1016E00010B590F83C20012A22D0012280F83C203D
:1016F000CA688C6822F4407222434C6822F48062EB
:1017000022430C6822F4006222430C6922F48052C6
:1017100022434C6922F400522243C969002322F477
:1017200080420A4301684A6480F83C30002010BDC2
:10173000022010BD70B590F83C20012A32D001245F
:1017400080F83C40022280F83D2003685A689D687A
:1017500022F070060A6832435A60134B02689A42BC
:1017600014D0B2F1804F11D0104B9A420ED0104BD2
:101770009A420BD00F4B9A4208D00F4B9A4205D099
:101780000E4B9A4202D00E4B9A4204D1496825F082
:1017900080031943916080F83D40002180F83C109F
:1017A000084670BD022070BD0000014000040040EA
:1017B00000080040000C00400004014000400140CF
:1017C0000018004010B5040003D094F83D0010B19B
:1017D00007E0012010BD002084F83C00204600F006
:1017E0000DF8022084F83D00211D206800F074FCF3
:1017F000012084F83D00002010BD000008B50C4A0F
:1018000001680C48914207D1016841F00101016073
:10181000006800F0010009E0074A914207D1016821
:1018200041F002010160006800F00200009008BD74
:1018300000000140443802400004014070B50446F5
:1018400090F83C00012817D0012584F83C50022074
:1018500084F83D002068826822F0770222F47F42FB
:1018600082600868502830D00DDC20284DD005DC7F
:1018700098B310283BD148E0022070BD302844D0F6
:10188000402834D139E0602828D0702806D0B0F53F
:10189000805F2CD0B0F5005F29D10AE0CB68D1E998
:1018A0000121206800F07CFC2068816841F077010C
:1018B00009E0CB68D1E90121206800F071FC2068C3
:1018C000816841F48041816011E0CA6849682068FC
:1018D00000F03AFD5021206807E016E0CA68496828
:1018E000206800F042FD6021206800F063FC84F86D
:1018F0003D50002084F83C0070BDCA6849682068EB
:1019000000F022FD40212068EFE7226801461046E2
:10191000EBE7000070B586B0044614216846FEF778
:1019200087FC204A2168204802240125914210D1D9
:10193000016841F0100101600068694600F0100084
:1019400005904FF4D4408DE831001848CDE90345A7
:1019500023E0174A914222D1016841F4807101606D
:10196000016801F480710591016841F00401016092
:101970000068032600F004000590C0208DE83100C7
:10198000CDE9034669460B48FFF780FA40208DE811
:101990003100CDE9034669460748FFF777FA06B0FC
:1019A00070BD0000000001403038024000100240CD
:1019B00000040140002002400008024070B50446C7
:1019C00090F83C000D4601280DD0012684F83C60BB
:1019D000022084F83D0042B1042A18D0082A2AD0F7
:1019E0000C2A4DD139E0022070BD206800F0EAFBDE
:1019F0002068816941F0080181612068816921F0D6
:101A000004018161206881692A69114311E020681D
:101A100000F008FC2068816941F400618161206860
:101A2000816921F480618161206881692A6941EAC4
:101A30000221816124E0206800F02AFC2068C1694D
:101A400041F00801C1612068C16921F00401C16150
:101A50002068C1692A69114311E0206800F04CFC3C
:101A60002068C16941F40061C1612068C16921F445
:101A70008061C1612068C1692A6941EA0221C161AE
:101A800084F83D60002084F83C0070BD10B504006F
:101A900003D094F83D0010B107E0012010BD0020F4
:101AA00084F83C00204600F00CF8022084F83D0049
:101AB000211D206800F010FB012084F83D0000206B
:101AC00010BD7047704770B5040004D094F8390019
:101AD000002510B106E0012070BD84F83850204682
:101AE00000F022F8242084F839002068C16821F42D
:101AF0000051C160204600F0A9FC2068016921F472
:101B0000904101612068416921F02A01416120680A
:101B1000C16841F40051C160E563202084F83900B8
:101B200084F83A00002070BD70B586B006461421D6
:101B30006846FEF77DFB2149306888423BD120484A
:101B40000025016841F480210160006800F48020D4
:101B500005901B481038016841F0040101600068DD
:101B6000694600F0040005904FF4406000900220A8
:101B7000CDE9010503200390072004901148FFF7E9
:101B800085F9124C104820604FF00060C4E901054F
:101B90004014C4E9035080106561C4E906504FF455
:101BA0004030C4E908052046FFF7BCF808B1FEF74D
:101BB00006FC7463A66306B070BD000000480040D8
:101BC00040380240000802402860024064010020C2
:101BD000F8B5044690F83A0020283CD1C1B3BAB316
:101BE00094F83800012836D0012084F83800A1622A
:101BF000A2850025E563222084F83A00636B17482C
:101C0000D863636B16481864636B1648D864606BBE
:101C1000134605650846666B216802463046091D75
:101C2000FFF7EAF8206801684168009184F83850AD
:101C3000C16841F48071C1602068416941F00101CF
:101C400041612068416941F0400141610020F8BDD7
:101C5000FFE70120FBE70220F9E70000D923000895
:101C6000152400088F23000818480188C1F30A02D0
:101C7000A0F114010A804278D308827843EA421323
:101C8000C3F30A034B80C378920942EA83030279C3
:101C900043EA8223C3F30A038B805308427943EA61
:101CA000C213C3F30A03CB8093090B72C2F3011270
:101CB0004A72C2884A8102898A814289CA81027B2A
:101CC0000A74427B4A74C0894882704740000020F1
:101CD0007047FEE70F4810B50D49016003214160D0
:101CE00000214FF410228160C0E903124FF400126A
:101CF0004261017641768176C17601774177FEF7C0
:101D0000CEFD002803D0BDE81040FEF758BB10BD43
:101D100000640040540000200F4810B50D490160D8
:101D20000321416000214FF410228160C0E90312B9
:101D30004FF400124261017641768176C1760177D7
:101D40004177FEF7ACFD002803D0BDE81040FEF758
:101D500036BB10BD006800407C000020094808B573
:101D6000016841F4001101600068002200F40010D5
:101D7000009011460C20FFF7D3F9BDE808400C2075
:101D8000FFF7C0B9303802401D4808B5016841F07E
:101D900002010160016801F002010091016841F057
:101DA00001010160016801F001010091016841F049
:101DB00008010160016801F008010091016841F02B
:101DC00004010160016801F004010091016841F41F
:101DD00080710160016801F480710091016841F037
:101DE00080010160016801F080010091016841F00B
:101DF00010010160006800F01000009008BD0000B4
:101E00003038024010B596B000240F94109411940D
:101E1000129413941C2168461494FEF709FA2021A9
:101E200007A8FEF705FA354833490160A721C0E944
:101E3000011444F61F61C0E9031444618461FFF793
:101E4000C1FC08B1FEF7BBFA4FF480500F900FA908
:101E50002A48FFF7F3FC08B1FEF7B1FA2748FFF76D
:101E600015FE08B1FEF7ABFA139413A92348149496
:101E7000FFF760FC08B1FEF7A2FA602000904FF473
:101E8000FA60CDE9010403940494059400226946A4
:101E90001A480694FFF792FD08B1FEF790FA042263
:101EA00069461648FFF78AFD08B1FEF788FA08224E
:101EB00069461248FFF782FD08B1FEF780FA0C224E
:101EC00069460E48FFF77AFD08B1FEF778FA0794E5
:101ED000089409944FF400500A94CDE90B4007A9E7
:101EE00006480E94FFF7FCFB08B1FEF768FA0348BA
:101EF000FFF710FD16B010BD00000140A400002047
:101F000010B596B000240F94109411941294139469
:101F10001C2168461494FEF78BF9202107A8FEF7D0
:101F200087F931482F490160A721C0E9011444F61F
:101F30001F61C0E9031444618461FFF743FC08B1E9
:101F4000FEF73DFA4FF480500F900FA92648FFF797
:101F500075FC08B1FEF733FA2348FFF797FD08B187
:101F6000FEF72DFA139413A91F481494FFF7E2FB10
:101F700008B1FEF724FA602000904FF4FA60CDE932
:101F800001040394049405940022694616480694BB
:101F9000FFF714FD08B1FEF712FA04226946124851
:101FA000FFF70CFD08B1FEF70AFA082269460E4851
:101FB000FFF704FD08B1FEF702FA079408940994AC
:101FC0004FF400500A94CDE90B4007A906480E943F
:101FD000FFF786FB08B1FEF7F2F90348FFF79AFC1A
:101FE00016B010BD00040140E40000200E4810B5FA
:101FF0000C4901600D4941604FF48051816000211E
:102000004FF48062C0E903120C22C0E90521C161CE
:10201000FFF759FD002803D0BDE81040FEF7CFB907
:1020200010BD00000048004024010020A0860100EF
:10203000FEE77047FFF70CB830B593B03021684623
:10204000FEF7F6F814210CA8FEF7F2F8194800255F
:10205000016841F080510160006800F080501190EB
:102060001548016841F4804101600068022400F4D1
:102070008040119001200090000401908001CDE982
:10208000064006200890A820CDE9090404200B9002
:102090006846FFF763F90CA90F2081E831004FF47F
:1020A000A0500F90E002109005210CA8FFF76AF8ED
:1020B00013B030BD40380240007000400548016850
:1020C00041F47001016003494FF0006080390860FD
:1020D0007047000088ED00E0F0B50268254C264D01
:1020E000264E274F274B4FF0804CA04209D0604529
:1020F00007D0A84205D0B04203D0B84201D09842E0
:1021000004D122F0700E4A6842EA0E02A0421BD0AF
:10211000604519D0A84217D0B04215D0B84213D0AC
:10212000984211D0184DA8420ED0184DA8420BD09D
:10213000174DA84208D0174DA84205D0164DA84209
:1021400002D0164DA84203D122F44075CA682A4332
:102150004D6922F080022A4302608A68C2620A68DE
:102160008262A04201D0984201D109690163012134
:102170004161F0BD00000140000400400008004043
:10218000000C0040000401400040014000440140B8
:102190000048014000180040001C004000200040A2
:1021A00010B5846842EA032224F47F440A432243A0
:1021B000826010BD826822F070020A4342F007017B
:1021C00081607047F0B5026A22F001020262036A80
:1021D00042688469124E24F073050C682C4323F086
:1021E00002058B682B430D4DA84201D0B04205D1AA
:1021F00023F00807CB683B4323F00403A84201D037
:10220000B04205D14D6922F4407215438A692A43D0
:1022100042608461496841630362F0BD000001408F
:1022200000040140F0B5026A22F010020262026A64
:10223000436884690D6824F4E64444EA05248D6803
:1022400022F0200242EA05120F4D104EA84201D0A2
:10225000B04206D1CF6822F0800242EA071222F093
:102260004002A84201D0B04207D14D6923F4406337
:1022700043EA85038D6943EA8503436084614968C5
:1022800081630262F0BD00000000014000040140D3
:10229000F0B5026A22F480720262026A4368C4697D
:1022A00022F4007224F073050C68124E2C438D68E2
:1022B00042EA05220E4DA84201D0B04206D1CF68B5
:1022C00022F4006242EA072222F48062A84201D08E
:1022D000B04207D14D6923F4405343EA05138D6999
:1022E00043EA05134360C4614968C1630262F0BDFB
:1022F000000001400004014030B5026A22F480521F
:102300000262046A4268C3690D6823F4E64343EA43
:1023100005238D6824F4005444EA0534084DA8428E
:1023200002D0084DA84204D14D6922F4804242EA0D
:1023300085124260C36149680164046230BD0000D7
:10234000000001400004014010B5036A046A24F053
:1023500001040462846924F0F00444EA021423F0C6
:102360000A020A438461026210BD10B5036A23F0B9
:10237000100303628369046A23F4704343EA023260
:1023800024F0A00343EA01118261016210BD70B51F
:10239000846B2068406994F83910C0F3C0100025A0
:1023A000212904D118B1E584204600F046F82068C0
:1023B000406994F83A10C0F38010222904D118B172
:1023C000E585204600F02BF8E06B40F01000E0635C
:1023D0002046FFF777FB70BD10B50146806B09689A
:1023E0000968C90513D40021C1850168CA6822F4AF
:1023F0008072CA6001684A6922F001024A6101687C
:102400004A6922F040024A61202180F83A10FFF721
:102410002BFC10BD10B5806BFFF75AFC10BD016896
:10242000CA6822F49072CA6001684A6922F0010207
:102430004A61202180F83A1070470168CA6822F08A
:10244000C002CA60202180F8391070472DE9F041A0
:10245000044600680169E26821F4405111430161BA
:102460002169A068E2690843616911430843216852
:10247000CA6849F20C639A430243CA602068416902
:10248000A26921F4407111434161E0691927642573
:102490003226B0F5004F354A354920684FF0000824
:1024A00006D0884201D0904236D1FEF715FF35E0C4
:1024B000884201D0904202D1FEF70EFF01E0FEF704
:1024C000FBFE61684A18A0FB070148EB0803FDF713
:1024D00077FE0146B0FBF5F00201B1FBF5F06FF0BD
:1024E0001803584301EB800006EBC000B0FBF5F089
:1024F00000F0F80002EB4002B1FBF5F0584301EBAD
:10250000800006EBC000B0FBF5F000F0070021688A
:1025100010448860BDE8F081FEF7CEFE61688B0F45
:102520008A00A0FB0701FDF74BFE0146B0FBF5F06A
:102530006FF01802504301EB800006EB0010B0FB77
:10254000F5F000F0F002B1FBF5F002EB0012B1FB88
:10255000F5F06FF01803584301EB800006EB001014
:10256000B0FBF5F000F00F00D1E7000000140140CF
:1025700000100140FEE70907090E002804DB00F106
:10258000E02080F80014704700F00F0000F1E02018
:1025900080F8141D704702E008C8121F08C1002A05
:1025A000FAD170477047002001E001C1121F002AD4
:1025B000FBD1704700B58BB000200121CDE90601A9
:1025C0000891009001900290039005900490694654
:1025D0000C48FDF76BFF0B48FEF7A0FA02210948F3
:1025E000FDF7EEFE0E200990059069460648FDF7BE
:1025F0005DFF0548FEF792FA02210348FDF7E0FE71
:102600000BB000BD540000207C000020FEF728FD28
:10261000FFF712FDFFF7B8FBFFF7A0FBFFF770FC19
:10262000FFF7F0FBFFF7E2FCFFF754FBFFF774FB4B
:10263000FFF7C0FF12220B490B48FFF7C9FA094DFB
:102640000A4C143D28884000A0F5006003B22060C9
:102650001A4618461146FDF735FE0A20FEF704FC1F
:10266000F0E70000400000202401002000000020CE
:102670000006101600061016000000000000000002
:102680000102030406070809000000000102030418
:10269000B0260008000000202C000000962500084D
:1026A000DC2600082C00002014220000A6250008CB
:1026B0000000000000000000010000001000000009
:1026C000000000000024F4000000000000000000F2
:0C26D000000000000000000000000000FE
:040000050800018965
:00000001FF
